:020000040800F2
:10000000180500209D0100083B1B000891180008FE
:10001000391B0008390300082F1E000800000000EB
:10002000000000000000000000000000991C000813
:1000300093030008000000003D1B00089B1C000803
:10004000B7010008B7010008B7010008B7010008B0
:10005000B7010008B7010008B7010008B7010008A0
:10006000B7010008B7010008B7010008B701000890
:10007000B7010008B7010008B7010008B701000880
:10008000B7010008B7010008B70100083D030008E8
:10009000B7010008B7010008B7010008B701000860
:1000A000B7010008B7010008B7010008B701000850
:1000B000B7010008B7010008B7010008B701000840
:1000C000B7010008B7010008B7010008B701000830
:1000D000B7010008B7010008B7010008B701000820
:1000E000B7010008B7010008B7010008B701000810
:1000F000B7010008B7010008B7010008B701000800
:10010000B7010008B7010008B7010008B7010008EF
:10011000B7010008B7010008B7010008B7010008DF
:10012000B7010008B7010008B7010008B7010008CF
:10013000B70100080000000000000000B70100083F
:10014000B7010008B7010008B7010008B7010008AF
:10015000B7010008B7010008B7010008B70100089F
:10016000B7010008B7010008B7010008B70100088F
:10017000B7010008B70100080000000000000000FF
:10018000B7010008B7010008DFF80CD000F07AF8DA
:1001900000480047ED1E000818050020064880476B
:1001A00006480047FEE7FEE7FEE7FEE7FEE7FEE75C
:1001B000FEE7FEE7FEE7FEE7311D000889010008C3
:1001C0002DE9F05F0546002092469B46884606468C
:1001D000814640241BE0284641464746224600F01F
:1001E00041F853465A46C01A914110D31146184659
:1001F000224600F028F82D1A67EB01084F462246E8
:100200000120002100F01FF817EB00094E41201ECD
:10021000A4F10104DFDC484631462A464346BDE8E6
:10022000F09FD2B201E000F8012B491EFBD27047CB
:100230000022F6E710B513460A4604461946FFF7B2
:10024000F0FF204610BD202A04DB203A00FA02F11C
:10025000002070479140C2F1200320FA03F31943B4
:1002600090407047202A04DB203A21FA02F0002156
:10027000704721FA02F3D040C2F1200291400843B6
:1002800019467047064C074D06E0E06840F0010350
:1002900094E8070098471034AC42F6D3FFF778FF94
:1002A000281F0008481F000838B5214D4FF480541E
:1002B00000222146284600F0FCFB0A2301220F21E0
:1002C0001C4801F033F801222146284600F0F1FBDA
:1002D000642001F0F7FD00222146284600F0E9FBEA
:1002E0000A2301220C21134801F020F801222146A3
:1002F000284600F0DEFB642001F0E4FD00222146E8
:10030000284600F0D6FB0A2301226946094800F07E
:1003100065FF01222146284600F0CBFBBDF8000016
:10032000A0F56F41F03901D000F034F838BD00007D
:10033000000402403C000020FEE70000014800F0FD
:10034000D2B8000014000020704710B58AB0002118
:100350000122044604910E20CDE90820019102916A
:10036000CDE906120591009103916946204600F0FF
:1003700033F8204600F086FA08B100F00BF80121AE
:10038000204600F017F8002801D000F003F80AB06A
:1003900010BD7047064D4FF400444FF4FA762146E5
:1003A000284600F07FFB304601F078FDF7E70000BB
:1003B0000000024090F82020012A07D0022A05D030
:1003C000416A41F48021416201207047006842691E
:1003D0000A4342610020704710B590F82020012A9E
:1003E00007D0022A05D0416A41F4802141620120F0
:1003F00010BD3B48D0F8002242F00102C0F80022B4
:10040000D0F8002222F47C52C0F80022D0F800225A
:100410004B6A42EA0322C0F800220A7D02F01F0361
:1004200001229A40D0F81C329343C0F81C32CB69A9
:10043000B3B9D0F80C329343C0F80C328C894B68B6
:1004400064F31F434C6900EBC404C4F840320C89C8
:100450000B6864F31F434C6900EBC404C4F84432D6
:10046000CB69012B16D1D0F80C321343C0F80C32F3
:100470000C884B6864F31F434C6900EBC404C4F858
:1004800040320C89CB6864F31F434C6900EBC40411
:10049000C4F844328B69002BD0F804320ED01343D9
:1004A000C0F804320B69002BD0F8143208D0134383
:1004B000C0F81432096A012904D008E09343EFE739
:1004C0009343F5E7D0F81C121143C0F81C12D0F882
:1004D000001221F00101C0F80012002010BD000040
:1004E0000064004070472DE9F05F05460068002475
:1004F0004669D0F804908768D0F80CB0D0F810A006
:10050000D0F81880F10748D0F90714D00121816094
:10051000B80703D5284600F0E2F90CE0780702D5C9
:100520004FF4006407E0380702D54FF4805402E02E
:10053000284600F0D3F9F80516D529684FF48070E5
:100540008860B80503D5284600F0CBF90CE07805A3
:1005500002D544F4005407E0380502D544F4804441
:1005600002E0284600F0BCF9F80316D529684FF4DC
:1005700080308860B80303D5284600F0B4F90CE059
:10058000780302D544F4004407E0380302D544F46C
:10059000803402E0284600F0A5F9300707D55FEA6D
:1005A000CB6004D52968102044F40074C86070073B
:1005B0004FF0080707D55FEA0B7004D52868C760BD
:1005C000284600F059F9B00706D52868C0688007AA
:1005D00002D0284600F051F9700607D55FEACA60DC
:1005E00004D52968102044F480640861B00607D55A
:1005F0005FEA0A7004D528680761284600F03EF9D2
:10060000F00606D528680069800702D0284600F069
:1006100036F9B00308D55FEAC96005D5296810200E
:100620004860284600F02CF9F00307D55FEA09700E
:1006300004D528684760284600F056F9300446D5AE
:100640005FEA497040D5F00504D55FEAC87001D073
:1006500044F00104B00504D55FEA887001D544F088
:100660000204700504D55FEA487001D544F0040423
:10067000300529D518F0700F26D008F070004028FA
:1006800015D006DC102809D020280AD0302816D131
:100690000AE050280ED0602811D10EE044F0080482
:1006A0000DE044F010040AE044F0200407E044F0B8
:1006B000400404E044F0800401E044F480742868BD
:1006C000816921F070018161296804204860002C53
:1006D00005D0686A204368622846FFF703FFBDE83B
:1006E000F09F70B5040003D094F8200010B104E02E
:1006F000012070BD204600F081F82068016821F0DB
:100700000201016000F0DAF90546052604E000F078
:10071000D5F9401B0A2811D8206840688007F6D414
:100720002068016841F00101016000F0C7F9054649
:100730000BE000F0C3F9401B0A2806D9606A40F4B8
:100740000030606284F82060D2E720684068C0070B
:10075000EFD0207E0128206801683DD021F0800183
:100760000160607E01282068016838D021F04001D6
:100770000160A07E01282068016833D021F02001AB
:100780000160E07E0128206801682ED041F0100150
:100790000160207F01282068016829D021F008012C
:1007A0000160607F01282068016824D021F00401E5
:1007B0000160D4E902010843D4E90412114308435B
:1007C0006168491E08432168C861002060620120F9
:1007D00084F82000002070BD41F08001C0E741F0A6
:1007E0004001C5E741F02001CAE721F01001CFE741
:1007F00041F00801D4E741F00401D9E710B586B013
:10080000044614216846FFF713FD18492068884202
:1008100029D117480021026842F000720260006886
:1008200000F00070059012481038026842F0010292
:100830000260006800F0010005904FF4C050009085
:100840000220CDE9010103200390092004906946AC
:10085000084800F04BF800221146132000F09CF9E4
:10086000132000F08BF906B010BD000000640040BA
:1008700040380240000002407047704770477047A0
:100880007047000070B5044690F82000012804D09D
:10089000606A40F40020606218E0022084F82000C2
:1008A0002068016821F00101016000F007F90546A8
:1008B0000EE000BF00F002F9401B0A2808D9606A68
:1008C00040F400306062052084F82000012070BDF3
:1008D00020684068C007EDD1606270BD7047704706
:1008E0007047704770477047704700002DE9F84F18
:1008F00000224FF0010803254FF00F0E0B6808FA95
:1009000002F42340A3426ED14E68012E05D0022E80
:1009100003D0112E01D0122E12D186684FEA420C5C
:1009200005FA0CF7BE43CF6807FA0CF73743876028
:100930004668A6430C79C4F30014944034434460E1
:10094000C668570005FA07FC8C6826EA0C06BC400E
:100950003443C4604C68022C01D0122C13D1D4084B
:1009600000EB8404A346D4F8209054074FEAD46ADD
:100970000EFA0AF629EA06090E6906FA0AF646EAA6
:100980000906CBF8206006680C7926EA0C0604F00C
:100990000304BC40344304604C68E40065D5364C25
:1009A000266846F480462660246822F0030604F494
:1009B00080440094314C3444A446D4F80848960747
:1009C000370F0EFA07F6B4432D4EB04201D1002680
:1009D00024E02C4EB04201D101261FE02A4EB04245
:1009E00002D102261AE040E0284EB04201D103268F
:1009F00014E0274EB04201D104260FE0254EB0424C
:100A000001D105260AE0244EB04201D1062605E0B8
:100A1000224EB04201D1072600E00826BE40264300
:100A2000CCF808681E4E34684F689C43FF0300D51D
:100A30001C4334601A4C241D26684F689E43BF0334
:100A400000D51E432660164E083634684F689C4316
:100A5000FF0200D51C433460114E0C3634684F68D9
:100A60009C43BF0200D51C433460521C102AFFF483
:100A700045AFBDE8F88F0000443802400030014027
:100A8000000002400004024000080240000C024046
:100A9000001002400014024000180240001C0240F6
:100AA000003C0140426931EA020200D1090481613F
:100AB00070470AB1816170470904FBE7014880680B
:100AC0007047000004000020024881680278114449
:100AD00081607047040000200B4810B5016841F4A4
:100AE00000710160016841F480610160016841F4B6
:100AF00080710160032000F06FF8002000F006F81C
:100B000000F024F8002010BD003C024070B50D4DEF
:100B100004464FF47A712878B1FBF0F00A4909686D
:100B2000B1FBF0F000F0A1FD48B9102C07D2002273
:100B30002146501E00F030F800206C6070BD01208E
:100B400070BD000004000020100000200A4808B515
:100B5000016841F480410160006800F48040009029
:100B60000548001F016841F080510160006800F0F5
:100B70008050009008BD000044380240002809DB86
:100B800000F01F02012191404009800000F1E020A7
:100B9000C0F8001170470000F0B40E4B1B680C4603
:100BA000C3F30223C3F10705042D00D90425191D41
:100BB000072901D2002300E0DB1E012606FA05F119
:100BC000491E214099409E40761E16403143F0BC9C
:100BD00001F02EB90CED00E0064900F007020868AC
:100BE0004FF6FF03184040EA0220034A1043086012
:100BF000704700000CED00E00000FA052DE9F04719
:100C00000E46050065D0DFF81481D8F80000F7B271
:100C100000F00F00B04207D288F80070D8F800004A
:100C200000F00F00B04254D128683D4C810712D526
:100C3000400703D5206840F4E05020602878000782
:100C400003D5206840F4604020602068A96820F047
:100C5000F000084320602878C0072DD0304968682C
:100C60000839012812D0022813D0032811D00968AE
:100C7000890700292DDA216821F003010143216051
:100C8000FFF71CFF814641F2883A0EE009688903AC
:100C9000EFE709688901ECE7FFF710FFA0EB090116
:100CA000514502D90320BDE8F0872068696800F04B
:100CB0000C00B0EB810FEFD1D8F80010404601F0E6
:100CC0000F01B14207D90770006800F00F00B04271
:100CD00001D00120E7E72878400705D52068E968BA
:100CE00020F4E050084320602878000706D52068EB
:100CF000296920F4604040EAC100206000F018F843
:100D00002168084AC1F30311515CC84006490860D4
:100D100006480068FFF7FAFE0020C4E7003C0240E6
:100D200008380240181F00081000002008000020AA
:100D3000154810B5006810F00C02144813D014497F
:100D4000042A0FD0082A0ED10F4C241F22682368D2
:100D500002F03F025B0207D52068C0F38810A0FBB9
:100D6000010106E0084610BD2168C1F38811A1FB0E
:100D700000010023FFF724FA2168C1F30141491C57
:100D80004900B0FBF1F010BD083802400024F40027
:100D9000001BB7002DE9F84F040076D02078DFF86B
:100DA00038A3CE4DC00749D0DAF800105046C1F341
:100DB0008101012908D00068C0F3810002280AD10E
:100DC000281D0068400206D52868800336D5606873
:100DD0000028E2D032E06068B0F5803F10D0B0F576
:100DE000A02F286810D020F480302860286820F4D4
:100DF000802028606068A0B1FFF760FE06460CE026
:100E0000286840F48030F4E740F480202860F7E759
:100E1000FFF754FE801B642873D828688003F7D539
:100E20000CE0FFF74BFE064605E000BFFFF746FE6D
:100E3000801B6428F0D828688003F7D42078DFF876
:100E4000A08280074FF000093ED5DAF80010504626
:100E500011F00C0F09D00068C0F3810002280BD1FB
:100E60009D48001F0068400206D42868800715D5F9
:100E7000E068012809D111E0E068B8B10120C8F8A4
:100E80000000FFF71BFE064605E020E1FFF716FE17
:100E9000801B0228C0D828688007F7D528682169F8
:100EA00020F0F80040EAC10028600DE0C8F800908A
:100EB000FFF704FE064604E0FFF700FE801B022851
:100EC0001FD828688007F7D42078000722D5824EE3
:100ED000844861696C3671B101210160FFF7EEFD54
:100EE000074604E0FFF7EAFDC01B022809D8306876
:100EF0008007F7D50EE0C0F80090FFF7DFFD07464A
:100F000005E082E0FFF7DAFDC01B02287DD83068DB
:100F10008007F7D42078400768D5DFF8BCB10027F8
:100F20000BF1380BDBF80000C0000BD4DBF800102D
:100F300041F08051CBF80010DBF80000012700F0F1
:100F400080500090684E3068C00510D4306840F47E
:100F500080703060FFF7B2FD009005E0FFF7AEFD56
:100F60000099401A022850D83068C005F6D55A4E6C
:100F7000A068683601280FD00528306810D020F00E
:100F800001003060306820F004003060A068B8B123
:100F9000FFF794FD00900FE0306840F00100F4E7A7
:100FA00040F004003060F7E7FFF788FD0099411A30
:100FB00041F28830814266D830688007F4D50EE06F
:100FC000FFF77CFD009007E0FFF778FD0099411ADC
:100FD00041F28830814256D830688007F4D42FB16E
:100FE000DBF8001021F08051CBF80010A069D0B3DD
:100FF000DAF800205146C2F38102022A4AD00228C0
:10100000484607D0C8F8600000E03CE0FFF756FD16
:1010100004463BE04746C8F86000FFF74FFD064630
:1010200005E000BFFFF74AFD801B02282BD8286887
:101030008001F7D4D4E907010843A16A2B4A490883
:1010400002EB0141626A41EA8211084394F82C10D4
:1010500040EA01612048001F016001203866FFF767
:101060002DFD044605E034E0FFF728FD001B0228B3
:1010700009D828688001F7D52BE000BFFFF71EFDD7
:10108000001B022802D90320BDE8F88F28688001E0
:10109000F4D41EE00128F7D00868E26900F480016A
:1010A000914214D1226A00F03F0191420FD147F6DC
:1010B000C071626A0140914209D1A26A00F44031D4
:1010C000914204D1E16A00F07060884201D00120B1
:1010D000DAE70020D8E70000083802400038024074
:1010E00000004742800E4742007000400000FFFFB2
:1010F00070B5040005D00025A56294F8510010B128
:1011000006E0012070BD84F85050204600F030F811
:10111000022084F851002068016821F0400101603C
:10112000D4E901010843D4E903121143084361697A
:101130000843218B01F400710843E1690843216AE7
:101140000843A16A084321680860A069042101EAF4
:101150001040616A0843216848602068C16921F431
:101160000061C1616565012084F85100002070BDF7
:1011700010B586B0044614216846FFF759F81449A3
:101180002068884221D113480021026842F480423D
:101190000260006800F4804005900E481038026834
:1011A00042F002020260006800F0020005904FF475
:1011B000604000900220CDE901010320039005204A
:1011C000049069460448FFF791FB06B010BD00008B
:1011D0000038004040380240000402402DE9F84F3A
:1011E000044640680025984616460F464FF0040B0B
:1011F000B0F5827F01D1A06888B194F85000012831
:1012000018D0012084F85000FFF758FC814694F86C
:1012100051004FF0000A01280ED002257DE084F82D
:1012200051B013460A462046CDF8008000F02CF954
:10123000BDE8F88F0220FBE7002F6DD0002E6BD0A9
:1012400084F851B0C4F854A0A763A687E687C4F811
:1012500030A0A4F834A0A4F836A0C4F840A0C4F884
:1012600044A0A068B0F5004F04D12068016821F4C3
:101270008041016020680168490603D4016841F09B
:1012800040010160E068D8B139E020688168C90791
:1012900009D0007BA16B0870A06B401CA063E08F9D
:1012A000401EE0870CE0FFF709FCA0EB0901414577
:1012B00003D3B8F1FF3F03D036E0B8F1000F33D0CD
:1012C000E08F0028E1D11DE020688168C90709D0BE
:1012D000C068A16B0880A06B801CA063E08F401EDB
:1012E000E0870CE0FFF7EAFBA0EB0901414503D3DF
:1012F000B8F1FF3F03D017E0B8F1000F14D0E08F32
:101300000028E1D14A464146204600F020FC08B1C1
:1013100020206065606D00B10125012084F8510036
:1013200084F850A0284683E70325F6E72DE9F84F17
:10133000044690F8500000271D46164689460128AD
:101340000DD04FF0010B84F850B0FFF7B7FB80468B
:1013500094F85100BA46012804D002278EE00220FA
:10136000BDE8F88FB9F1000F7DD0002E7BD00320AF
:1013700084F85100C4F854A0C4F83090A686E686DC
:10138000C4F838A0A4F83CA0A4F83EA0C4F844A037
:10139000C4F840A0A068B0F5004F04D120680168EF
:1013A00041F48041016020680168490603D4016866
:1013B00041F040010160E068B0F5006F606803D063
:1013C00030B3012E24D040E008B1012E1CD1206B97
:1013D00021680088C86006E020688168890709D50F
:1013E000216B0988C160206B801C2063E08E401E49
:1013F000E08609E0FFF762FBA0EB0800A84202D3F9
:10140000681C01D031E07DB3E08E0028E4D11FE0FC
:10141000206B21680078087306E0206881688907DE
:1014200009D5216B09780173206B401C2063E08E85
:10143000401EE08609E0FFF741FBA0EB0800A84250
:1014400002D3681C01D010E075B1E08E0028E4D111
:1014500042462946204600F0A9FB08B120206065DD
:10146000A06820B107E008E0FFE7032706E0206856
:10147000C16880680090606D00B1012784F851B0A8
:1014800084F850A038466BE72DE9F84F044690F8F1
:10149000500000270A9E1D4692468B464FF00109D8
:1014A00001280ED0012084F85000FFF707FB80468A
:1014B00094F85100616801280CD0B1F5827F07D102
:1014C00002E00220BDE8F88FA16809B9042801D024
:1014D0000227C2E0BBF1000F27D0BAF1000F24D0E1
:1014E0001DB394F85100042802D0052084F851005F
:1014F00000206065C4F838A0E587A587C4F830B03F
:10150000E586A5862064606420680168490603D4E6
:10151000016841F040010160E068B0F5006F60686B
:1015200005D0E8B3012D46D07FE0012795E008B152
:10153000012D39D1206B21680088C860206B801C88
:101540002063E08E401EE0862EE0206881688907D7
:101550000FD5E18E69B1B9F1010F0AD1216B09886C
:10156000C160206B801C2063E08E401EE0864FF03F
:10157000000920688168C9070CD0E18F51B1C068AB
:10158000A16B0880A06B801CA063E08F401EE087E9
:101590004FF00109FFF792FAA0EB0800B04200E01B
:1015A00009E001D3701C50D1E08E0028CDD1E08F2E
:1015B0000028CAD13FE0206B216800780873206BB7
:1015C000401C2063E08E401EE0862EE0206881688B
:1015D00089070FD5E18E69B1B9F1010F0AD1216BED
:1015E00009780173206B401C2063E08E401EE0866A
:1015F0004FF0000920688168C9070CD0E18F51B114
:10160000C068A16B0870A06B401CA063E08F401EF7
:10161000E0874FF00109FFF751FAA0EB0800B04254
:1016200002D3701C01D010E07EB1E08E0028CDD135
:10163000E08F0028CAD142463146204600F0B6FA73
:1016400028B101272020606507E0032705E0A06896
:1016500018B92068C16880680090012084F85100A2
:10166000002084F8500038462CE710B5401EB0F139
:10167000807F01D3012010BD4FF0E02460610F2175
:10168000601700F0D5FB0020A0610720206100203A
:1016900010BD000070B590F83C20012A32D0012422
:1016A00080F83C40022280F83D2003685A689D681B
:1016B00022F070060A6832435A60134B02689A425D
:1016C00014D0B2F1804F11D0104B9A420ED0104B73
:1016D0009A420BD00F4B9A4208D00F4B9A4205D03A
:1016E0000E4B9A4202D00E4B9A4204D1496825F023
:1016F00080031943916080F83D40002180F83C1040
:10170000084670BD022070BD00000140000400408A
:1017100000080040000C004000040140004001406F
:10172000001800402DE9F0410D46040003D094F864
:101730003D0018B108E00120BDE8F081002084F8E8
:101740003C00204600F03AF8022084F83D00206872
:10175000816844F2070291438160211D206800F0F6
:10176000F5FA226890689169166A2B68AF6903439D
:1017700040F20330814341EA0721A868EF6908433A
:101780004FF6FC418843E96840EA07200143286995
:101790002F6A000140EA0730084369686D6926F046
:1017A000AA0646EA051529439360226890612068DD
:1017B0000162012084F83D000020BDE730B587B00C
:1017C000044614216846FEF733FD204824681E4D68
:1017D00000221E4910380223AC4216D10C6844F096
:1017E00002040C60096801F002010591016841F0F2
:1017F000040101600068694600F004000590C02003
:101800000090CDE90132124818E0124DAC4219D1D6
:101810000C6844F008040C60096801F008010591A7
:10182000016841F0010101600068694600F00100B3
:10183000059003200090CDE901320748CDE903234C
:10184000FFF754F807B030BD0004004040380240B4
:1018500000080240000C00400000024010B50446A1
:10186000006891B1042904D00122002100F0D2FACD
:10187000206801225FF0040100F0CCFA20680168C2
:1018800041F001010160002010BD01220021F3E7B9
:10189000FEE7000010B5A82000F0EAFA0748FEF7BE
:1018A00054FDFEF701FD3C210548FFF7D7FFBDE8D9
:1018B00010403C210348FFF7D1BF00001400002076
:1018C00094000020D40000200F4810B50D4901609D
:1018D0000321416000214FF400228160C0E903121E
:1018E0004FF440124261017641768176C1760177EC
:1018F0004177FEF7F6FE002803D0BDE81040FEF762
:1019000049BD10BD00640040140000202DE9F04FD7
:1019100087B014216846FEF78BFC3C48002501681F
:1019200041F080010160016801F0800105910168CA
:1019300041F001010160016801F0010105910168B8
:1019400041F002010160016801F0020105910168A6
:1019500041F0040101600068DFF8B49000F0040079
:101960000590012241F202014846FFF7A2F8DFF894
:10197000A4A04FF40047002239465046FFF799F8DB
:10198000DFF894B04FF48068002241465846FFF7D4
:1019900090F8042002268DE8610069465046FEF763
:1019A000A5FF0124CDE90045694648460294FEF7AB
:1019B0009DFFCDE9006469464846CDE90245FEF742
:1019C00095FF2003CDE900040320CDE902406946DC
:1019D0004846FEF78BFF20028DE8610069465846B5
:1019E000FEF784FFCDE9007469465046CDE9024513
:1019F000FEF77CFFCDE9008469465846CDE90245F3
:101A0000FEF774FF07B0BDE8F08F000030380240E9
:101A1000000402400000024000080240114810B5D6
:101A20000F4901604FF48271416000214FF4006260
:101A3000C0E902120122C0E90412520282610822A6
:101A4000C0E90721416281620A21C162FFF750FBB0
:101A5000002803D0BDE81040FEF79CBC10BD00007C
:101A6000003800403C00002010B58CB024216846AE
:101A7000FEF7DEFB00241548099413490A94C0E9D7
:101A800000148460C460046184610320CDE9000413
:101A90000120CDE902040494CDE90540079469468C
:101AA0000A480894FFF73EFE08B1FEF773FC09945C
:101AB00009A906480A94FFF7EDFD002801D0FEF7BA
:101AC00069FC0CB010BD0000000400409400002030
:101AD00010B58CB024216846FEF7AAFB00241548F7
:101AE000099413490A94C0E90014611EC0E9024137
:101AF000046184610320CDE900040120CDE90204E2
:101B00000494CDE90540079469460A480894FFF714
:101B100009FE08B1FEF73EFC099409A905480A949C
:101B2000FFF7B8FD002801D0FEF734FC0CB010BD63
:101B3000000C0040D4000020FEE77047704710B54D
:101B400000F004F8BDE81040FEF7FEBB7047F8B5A2
:101B5000044640684FF48273984221D1A0684FF444
:101B60008065B0F5004F01D0A8420AD12068066810
:101B700026F0400606606068984211D1A068A8422D
:101B80000ED000920B4600228021204600F03AF849
:101B9000002804D0606D40F0200060650320F8BD8F
:101BA00000920B4600220121EFE7000038B5044601
:101BB0001248134B0068B0FBF3F04FF47A735843AC
:101BC00000906068B0F5827F0DD10B460092002234
:101BD0008021204600F016F870B1606D40F02000C2
:101BE0006065032038BD009830B1401E0090206829
:101BF0008068C0430006F6D5002038BD10000020E4
:101C000000366E012DE9F0411D4617460E4604468A
:101C1000DDF8188008E0681C06D0FEF74FFFA0EB47
:101C20000800A8420BD255B12068806836EA00004F
:101C300030D00020B842EED10020BDE8F08120680D
:101C4000416821F0E00141606068B0F5827F0BD10E
:101C5000A068B0F5004F02D0B0F5806F04D12068C5
:101C6000016821F040010160A06AB0F5005F09D170
:101C70002068016821F4005101602068016841F486
:101C800000510160012084F85100002084F85000C8
:101C90000320D2E70120CDE77047FEF715BF000013
:101CA00030B593B030216846FEF7C2FA14210CA873
:101CB000FEF7BEFA1C480025016841F08051016022
:101CC000006800F0805011901848016841F480418C
:101CD00001600068022400F480401190012000900F
:101CE000000401908001CDE9064006200890A8205C
:101CF000CDE9090404200B906846FFF74BF870B952
:101D00000CA90F2081E831004FF4A0500F90E002A1
:101D1000109005210CA8FEF771FF002801D0FEF7F6
:101D200039FB13B030BD0000403802400070004065
:101D30000548016841F47001016003494FF00060FB
:101D4000803908607047000088ED00E0F0B5026857
:101D5000254C264D264E274F274B4FF0804CA04256
:101D600009D0604507D0A84205D0B04203D0B842A0
:101D700001D0984204D122F0700E4A6842EA0E0265
:101D8000A0421BD0604519D0A84217D0B04215D050
:101D9000B84213D0984211D0184DA8420ED0184D19
:101DA000A8420BD0174DA84208D0174DA84205D025
:101DB000164DA84202D0164DA84203D122F4407518
:101DC000CA682A434D6922F080022A4302608A6869
:101DD000C2620A688262A04201D0984201D10969B8
:101DE000016301214161F0BD000001400004004099
:101DF00000080040000C0040000401400040014089
:101E0000004401400048014000180040001C004010
:101E10000020004010B501F01F030121046A994021
:101E20008C430462016A9A401143016210BDFEE7CF
:101E30000907090E002804DB00F1E02080F80014F7
:101E4000704700F00F0000F1E02080F8141D70478B
:101E500002E008C8121F08C1002AFAD17047704773
:101E6000002001E001C1121F002AFBD170470000D1
:101E70004FF0E0210A6922F004020A610649C00815
:101E800000EB40020870C2EBC0104FF6FF7202EA8E
:101E9000C0004880704700000000002008494988C1
:101EA00048434FF0E02148610020886101220A6127
:101EB0000A69D30701D0D203FAD508618861704757
:101EC000000000200849097848434FF0E0214861AC
:101ED0000020886101220A610A69D30701D0D20378
:101EE000FAD508618861704700000020FEF7F4FD14
:101EF000FFF7D6FEFFF70AFDFFF7E6FCFFF78EFDC2
:101F0000FFF7B2FDFFF7E4FDFFF7C4FCFFF717FE94
:101F10000120FFF7C3FFF9E7000000000000000008
:101F20000102030406070809481F000800000020FA
:101F300014000000501E00085C1F00081400002060
:101F400004050000601E0008000000000100000001
:0C1F500010000000000000000024F4005D
:040000050800018965
:00000001FF
